:100000000C9462000C948A000C948A000C948A0070
:100010000C948A000C948A000C948A000C948A0038
:100020000C948A000C948A000C948A000C948A0028
:100030000C948A000C948A000C948A000C948A0018
:100040000C949A020C948A000C948A000C948A00F6
:100050000C948A000C948A000C948A000C948A00F8
:100060000C948A000C948A000000000023002600F3
:10007000290000000000240027002A0000000000E2
:10008000250028002B0004040404040404040202D4
:100090000202020203030303030301020408102007
:1000A0004080010204081020010204081020000012
:1000B0000008000201000003040700000000000027
:1000C00000009C0311241FBECFEFD8E0DEBFCDBFE0
:1000D00011E0A0E0B1E0E6E8F7E002C005900D9283
:1000E000A836B107D9F721E0A8E6B1E001C01D921A
:1000F000A938B207E1F710E0C2E6D0E004C02197CA
:10010000FE010E94BB03C136D107C9F70E94E40279
:100110000C94C1030C940000833081F028F48130EA
:1001200099F08230A9F008958730A9F08830C9F09D
:100130008430B1F4809180008F7D03C08091800075
:100140008F7780938000089584B58F7784BD08955C
:1001500084B58F7DFBCF8091B0008F778093B00006
:1001600008958091B0008F7DF9CF1F93CF93DF93D7
:10017000282F30E0F901E255FF4F8491F901E6564E
:10018000FF4FD491F901EA57FF4FC491CC23A9F056
:10019000162F81110E948C00EC2FF0E0EE0FFF1F54
:1001A000E458FF4FA591B4918FB7F894EC911111D9
:1001B00008C0D095DE23DC938FBFDF91CF911F91D4
:1001C0000895DE2BF8CFCF93DF9390E0FC01E65645
:1001D000FF4F24918A579F4FFC0184918823D1F0CF
:1001E00090E0880F991FFC01EE58FF4FA591B49144
:1001F000FC01E458FF4FC591D49161110EC09FB727
:10020000F8948C91E22FE0958E238C932881E22341
:10021000E8839FBFDF91CF9108958FB7F894EC9159
:10022000E22BEC938FBFF6CFAF92BF92CF92DF92CB
:10023000EF92FF920F931F93CF93DF936C017B019B
:100240008B01040F151FEB015E01AE18BF08C0172C
:10025000D10759F06991D601ED91FC910190F0819F
:10026000E02DC6010995892B79F7C501DF91CF9162
:100270001F910F91FF90EF90DF90CF90BF90AF90C4
:100280000895089590E080E00895CF93DF93EC0106
:1002900060E08E810E94B50061E08E810E94B50011
:1002A00060E08E810E94B5008BE891E00197F1F744
:1002B000DF91CF910895CF92DF92EF92FF920F934B
:1002C0001F93CF93DF936C017C0187E0E80EF11C54
:1002D000D0E0C0E0062F10E0B8010C2E02C07595EA
:1002E00067950A94E2F76170F70181917F010E949E
:1002F000B5002196C430D10579F7C601DF91CF91C1
:100300001F910F91FF90EF90DF90CF900C944501DB
:10031000CF92DF92EF92FF920F931F93CF93DF93D1
:10032000EC01F62E642F8C810E94B5008D818F3FE9
:1003300019F060E00E94B5000F2D10E08F8584FF5A
:1003400025C06E0187E0C80ED11CF12CE12CB8014C
:100350000E2C02C0759567950A94E2F76170F6015C
:1003600081916F010E94B500FFEFEF1AFF0A88E04C
:10037000E816F10461F7CE01DF91CF911F910F9143
:10038000FF90EF90DF90CF900C944501B80184E08E
:10039000759567958A95E1F7CE010E945B016F2DF7
:1003A000CE01DF91CF911F910F91FF90EF90DF90E1
:1003B000CF900C945B0140E0682F81E791E00C94B2
:1003C0008801CF93DF93613029F09091800198608C
:1003D00090938001609384011092850190E4909342
:1003E000860180938701805C8093880161E0809121
:1003F00075010E94E300809176018F3F19F061E062
:100400000E94E30061E0809177010E94E300C1E770
:10041000D1E09E01215731408091800184FD0BC0C5
:1004200084E090E021962817390744F461E08E813A
:100430000E94E300EECF88E090E0F4CF8BE39DE0F4
:100440000197F1F760E0809175010E94B50060E0CE
:10045000809177010E94B500809176018F3F19F05D
:1004600060E00E94B5008091800184FD39C063E0A6
:1004700081E791E00E945B01CBE4D6E4CE010197D5
:10048000F1F763E081E791E00E945B012197F1F7CA
:1004900063E081E791E00E945B0183E592E00197D0
:1004A000F1F762E081E791E00E945B0180918001B9
:1004B00080620E94DB0184E0809381018CE00E94D5
:1004C000DB0181E00E94DB018BE39FE10197F1F703
:1004D00082E08093820186E0DF91CF910C94DB0172
:1004E00080620E94DB018BE496E40197F1F7809132
:1004F000800180620E94DB0183E592E00197F1F7C1
:100500008091800180620E94DB01D0CF90918401B4
:10051000891710F08FEF890FE82FF0E0EF58FE4FAA
:10052000848980680C94DB0141E00E94880181E0AD
:1005300090E008951F920F920FB60F9211242F93FF
:100540003F938F939F93AF93BF9380916D01909151
:100550006E01A0916F01B091700130916C0123E0A8
:10056000230F2D3758F50196A11DB11D20936C0165
:1005700080936D0190936E01A0936F01B093700111
:100580008091680190916901A0916A01B0916B011D
:100590000196A11DB11D8093680190936901A093FC
:1005A0006A01B0936B01BF91AF919F918F913F9181
:1005B0002F910F900FBE0F901F90189526E8230FD4
:1005C0000296A11DB11DD2CF789484B5826084BDFE
:1005D00084B5816084BD85B5826085BD85B5816047
:1005E00085BD80916E00816080936E0010928100C5
:1005F0008091810082608093810080918100816080
:100600008093810080918000816080938000809140
:10061000B10084608093B1008091B00081608093CC
:10062000B00080917A00846080937A0080917A0093
:10063000826080937A0080917A00816080937A0052
:1006400080917A00806880937A001092C10060E007
:1006500082E00E94E30061E087E00E94E30061E045
:1006600086E00E94E30064E084E10E94E10180E012
:100670000E94860245E150E06CE071E081E791E084
:100680000E94140181E00E94860244E150E062E28F
:1006900071E081E791E00E941401C0EBD0E00CE929
:1006A00010E098E8E92E90E0F92E20E0C22E20E03C
:1006B000D22EFE018491F801A490F701B490BB20E2
:1006C00039F181110E948C00EB2DF0E0EE0FFF1F3D
:1006D000E859FF4FA591B4918C91A822C9F061E02F
:1006E00087E00E94B50060E086E00E94B50083E0EC
:1006F0000E94860247E150E067E371E081E791E004
:100700000E941401C114D104A1F20E940000D1CFB3
:1007100083E00E94860248E150E06FE471E081E7E7
:1007200091E00E94140160E087E00E94B50061E062
:1007300086E00E94B500E6CFE1E7F1E01382128285
:1007400084E091E0918380838DE084838FEF8583C3
:100750008CE086838BE087838AE0808789E08187CD
:1007600088E082871386148615861686178661E0D0
:1007700080E10C94E101EE0FFF1F0590F491E02D54
:060780000994F894FFCF7C
:1007860000000000940214014201410153696D7595
:100796006C6174696F6E2050726F74657573203862
:1007A6002000204445544543544555522044452095
:1007B600504C5549452000204C6120506C756965A8
:1007C600204172726976652E2E2E20202020002070
:1007D60020202050415320444520504C5549452067
:0807E60021202020202020002A
:00000001FF
