:100000000C9462000C948A000C948A000C948A0070
:100010000C948A000C948A000C948A000C948A0038
:100020000C948A000C948A000C948A000C948A0028
:100030000C948A000C948A000C948A000C948A0018
:100040000C948C020C948A000C948A000C948A0004
:100050000C948A000C948A000C948A000C948A00F8
:100060000C948A000C948A000000000023002600F3
:10007000290000000000240027002A0000000000E2
:10008000250028002B0004040404040404040202D4
:100090000202020203030303030301020408102007
:1000A0004080010204081020010204081020000012
:1000B0000008000201000003040700000000000027
:1000C0000000A40311241FBECFEFD8E0DEBFCDBFD8
:1000D00011E0A0E0B1E0E6E9F7E002C005900D9282
:1000E000A235B107D9F721E0A2E5B1E001C01D9228
:1000F000A337B207E1F710E0C2E6D0E004C02197D1
:10010000FE010E94C303C136D107C9F70E94D6027F
:100110000C94C9030C940000833081F028F48130E2
:1001200099F08230A9F008958730A9F08830C9F09D
:100130008430B1F4809180008F7D03C08091800075
:100140008F7780938000089584B58F7784BD08955C
:1001500084B58F7DFBCF8091B0008F778093B00006
:1001600008958091B0008F7DF9CF1F93CF93DF93D7
:10017000282F30E0F901E255FF4F8491F901E6564E
:10018000FF4FD491F901EA57FF4FC491CC23A9F056
:10019000162F81110E948C00EC2FF0E0EE0FFF1F54
:1001A000E458FF4FA591B4918FB7F894EC911111D9
:1001B00008C0D095DE23DC938FBFDF91CF911F91D4
:1001C0000895DE2BF8CFCF93DF9390E0FC01E65645
:1001D000FF4F24918A579F4FFC0184918823D1F0CF
:1001E00090E0880F991FFC01EE58FF4FA591B49144
:1001F000FC01E458FF4FC591D49161110EC09FB727
:10020000F8948C91E22FE0958E238C932881E22341
:10021000E8839FBFDF91CF9108958FB7F894EC9159
:10022000E22BEC938FBFF6CFAF92BF92CF92DF92CB
:10023000EF92FF920F931F93CF93DF936C017B019B
:100240008B01040F151FEB015E01AE18BF08C0172C
:10025000D10759F06991D601ED91FC910190F0819F
:10026000E02DC6010995892B79F7C501DF91CF9162
:100270001F910F91FF90EF90DF90CF90BF90AF90C4
:100280000895089590E080E00895CF93DF93EC0106
:1002900060E08E810E94B50061E08E810E94B50011
:1002A00060E08E810E94B5008BE891E00197F1F744
:1002B000DF91CF910895CF92DF92EF92FF920F934B
:1002C0001F93CF93DF936C017C0187E0E80EF11C54
:1002D000D0E0C0E0062F10E0B8010C2E02C07595EA
:1002E00067950A94E2F76170F70181917F010E949E
:1002F000B5002196C430D10579F7C601DF91CF91C1
:100300001F910F91FF90EF90DF90CF900C944501DB
:10031000CF92DF92EF92FF920F931F93CF93DF93D1
:10032000EC01F62E642F8C810E94B5008D818F3FE9
:1003300019F060E00E94B5000F2D10E08F8584FF5A
:1003400025C06E0187E0C80ED11CF12CE12CB8014C
:100350000E2C02C0759567950A94E2F76170F6015C
:1003600081916F010E94B500FFEFEF1AFF0A88E04C
:10037000E816F10461F7CE01DF91CF911F910F9143
:10038000FF90EF90DF90CF900C944501B80184E08E
:10039000759567958A95E1F7CE010E945B016F2DF7
:1003A000CE01DF91CF911F910F91FF90EF90DF90E1
:1003B000CF900C945B0140E0682F8BE591E00C94AA
:1003C0008801CF93DF93613029F090916A019860A2
:1003D00090936A0160936E0110926F0190E4909384
:1003E000700180937101805C8093720161E0809163
:1003F0005F010E94E300809160018F3F19F061E08E
:100400000E94E30061E0809161010E94E300CBE57E
:10041000D1E09E012B55314080916A0184FD0BC0D3
:1004200084E090E021962817390744F461E08E813A
:100430000E94E300EECF88E090E0F4CF8BE39DE0F4
:100440000197F1F760E080915F010E94B50060E0E4
:10045000809161010E94B500809160018F3F19F089
:1004600060E00E94B50080916A0184FD39C063E0BC
:100470008BE591E00E945B01CBE4D6E4CE010197CD
:10048000F1F763E08BE591E00E945B012197F1F7C2
:1004900063E08BE591E00E945B0183E592E00197C8
:1004A000F1F762E08BE591E00E945B0180916A01C7
:1004B00080620E94DB0184E080936B018CE00E94EB
:1004C000DB0181E00E94DB018BE39FE10197F1F703
:1004D00082E080936C0186E0DF91CF910C94DB0188
:1004E00080620E94DB018BE496E40197F1F7809132
:1004F0006A0180620E94DB0183E592E00197F1F7D7
:1005000080916A0180620E94DB01D0CF41E00E94AD
:10051000880181E090E008951F920F920FB60F922C
:1005200011242F933F938F939F93AF93BF93809109
:10053000570190915801A0915901B0915A01309101
:10054000560123E0230F2D3758F50196A11DB11D4B
:10055000209356018093570190935801A09359011D
:10056000B0935A018091520190915301A09154018E
:10057000B09155010196A11DB11D80935201909338
:100580005301A0935401B0935501BF91AF919F9136
:100590008F913F912F910F900FBE0F901F90189544
:1005A00026E8230F0296A11DB11DD2CF789484B501
:1005B000826084BD84B5816084BD85B5826085BD5F
:1005C00085B5816085BD80916E00816080936E00ED
:1005D00010928100809181008260809381008091DF
:1005E0008100816080938100809180008160809390
:1005F00080008091B10084608093B1008091B00050
:1006000081608093B00080917A00846080937A004A
:1006100080917A00826080937A0080917A00816074
:1006200080937A0080917A00806880937A0010929B
:10063000C10064E084E10E94E10160E082E00E9488
:10064000E30061E087E00E94E30061E086E00E9451
:10065000E300E1E080916E018111E0E0E195F0E0DE
:10066000E55AFE4F848980680E94DB0144E150E036
:100670006CE071E08BE591E00E941401C0EBD0E0EA
:100680000CE910E098E8E92E90E0F92E20E0C22E67
:1006900020E0D22EFE018491F801A490F701B490DD
:1006A000BB2099F181110E948C00EB2DF0E0EE0F40
:1006B000FF1FE859FF4FA591B4918C91A82229F111
:1006C00061E087E00E94B50060E086E00E94B5002E
:1006D000E0916E01E430B8F4E150F0E0E55AFE4FED
:1006E000848980680E94DB0147E150E061E271E0AB
:1006F0008BE591E00E941401C114D10409F4CACF22
:100700000E940000C7CFE3E0E8CFE0916E01E43043
:10071000C8F4E150F0E0E55AFE4F848980680E94F9
:10072000DB0148E150E069E371E08BE591E00E9474
:10073000140160E087E00E94B50061E086E00E945D
:10074000B500DACFE3E0E6CFEBE5F1E01382128209
:1007500084E091E0918380838DE084838FEF8583B3
:100760008CE086838BE087838AE0808789E08187BD
:1007700088E082871386148615861686178661E0C0
:1007800080E10C94E101EE0FFF1F0590F491E02D44
:060790000994F894FFCF6C
:100796000000000086021401420141012044455434
:1007A60045435445555220444520504C5549452013
:1007B60000204C6120506C75696520417272697623
:1007C600652E2E2E20202020002020202050415350
:1007D60020444520504C55494520212020202020EA
:0207E6002000F1
:00000001FF
