:100000000C9462000C948A000C948A000C948A0070
:100010000C948A000C948A000C948A000C948A0038
:100020000C948A000C948A000C948A000C948A0028
:100030000C948A000C948A000C948A000C948A0018
:100040000C94D9020C948A000C948A000C948A00B7
:100050000C948A000C948A000C948A000C948A00F8
:100060000C948A000C948A000000000024002700F1
:100070002A0000000000250028002B0000000000DE
:1000800023002600290004040404040404040202DA
:100090000202020203030303030301020408102007
:1000A0004080010204081020010204081020000012
:1000B0000008000201000003040700000000000027
:1000C0000000710411241FBECFEFD8E0DEBFCDBF0A
:1000D00011E0A0E0B1E0E0E3F9E002C005900D928C
:1000E000A039B107D9F721E0A0E9B1E001C01D9224
:1000F000A73BB207E1F710E0C2E6D0E004C02197C9
:10010000FE010E949004C136D107C9F70E94230363
:100110000C9496040C940000833081F028F4813014
:1001200099F08230A9F008958730A9F08830C9F09D
:100130008430B1F4809180008F7D03C08091800075
:100140008F7780938000089584B58F7784BD08955C
:1001500084B58F7DFBCF8091B0008F778093B00006
:1001600008958091B0008F7DF9CFCF93DF93282F32
:1001700030E0F901E255FF4F8491F901E656FF4F57
:10018000D491F901EA57FF4FC491CC23A1F081111A
:100190000E948C00EC2FF0E0EE0FFF1FE458FF4FA1
:1001A000A591B491EC91ED2381E090E009F480E019
:1001B000DF91CF91089580E090E0FACF1F93CF9325
:1001C000DF93282F30E0F901E255FF4F8491F901C8
:1001D000E656FF4FD491F901EA57FF4FC491CC2363
:1001E000A9F0162F81110E948C00EC2FF0E0EE0F89
:1001F000FF1FEE58FF4FA591B4918FB7F894EC9183
:10020000111108C0D095DE23DC938FBFDF91CF9111
:100210001F910895DE2BF8CFCF93DF9390E0FC0180
:10022000E656FF4F24918A579F4FFC018491882303
:10023000D1F090E0880F991FFC01E859FF4FA5917C
:10024000B491FC01EE58FF4FC591D49161110EC0DD
:100250009FB7F8948C91E22FE0958E238C932881A0
:10026000E223E8839FBFDF91CF9108958FB7F89481
:10027000EC91E22BEC938FBFF6CFAF92BF92CF926F
:10028000DF92EF92FF920F931F93CF93DF936C0156
:100290007B018B01040F151FEB015E01AE18BF0837
:1002A000C017D10759F06991D601ED91FC910190E9
:1002B000F081E02DC6010995892B79F7C501DF9101
:1002C000CF911F910F91FF90EF90DF90CF90BF9053
:1002D000AF900895089590E080E00895FC010190AA
:1002E0000020E9F73197AF01481B590BBC018FE99A
:1002F00091E00C943D01CF93DF93EC0160E08E819F
:100300000E94DE0061E08E810E94DE0060E08E814E
:100310000E94DE008BE891E00197F1F7DF91CF9129
:100320000895CF92DF92EF92FF920F931F93CF9396
:10033000DF936C017C0187E0E80EF11CD0E0C0E0A7
:10034000062F10E0B8010C2E02C0759567950A942F
:10035000E2F76170F70181917F010E94DE00219632
:10036000C430D10579F7C601DF91CF911F910F916C
:10037000FF90EF90DF90CF900C947B01CF92DF92B3
:10038000EF92FF920F931F93CF93DF93EC01F62E22
:10039000642F8C810E94DE008D818F3F19F060E018
:1003A0000E94DE000F2D10E08F8584FF25C06E01B6
:1003B00087E0C80ED11CF12CE12CB8010E2C02C034
:1003C000759567950A94E2F76170F60181916F0166
:1003D0000E94DE00FFEFEF1AFF0A88E0E816F10442
:1003E00061F7CE01DF91CF911F910F91FF90EF90B8
:1003F000DF90CF900C947B01B80184E075956795F0
:100400008A95E1F7CE010E9491016F2DCE01DF9117
:10041000CF911F910F91FF90EF90DF90CF900C94B0
:10042000910140E0682F8FE991E00C94BE01CF93D9
:10043000DF93613029F09091AE0198609093AE0106
:100440006093B2011092B30190E49093B401809351
:10045000B501805C8093B60161E08091A3010E94A8
:100460000C018091A4018F3F19F061E00E940C0102
:1004700061E08091A5010E940C01CFE9D1E09E01CD
:100480002F5931408091AE0184FD0BC084E090E093
:1004900021962817390744F461E08E810E940C01EF
:1004A000EECF88E090E0F4CF8BE39DE00197F1F789
:1004B00060E08091A3010E94DE0060E08091A501D0
:1004C0000E94DE008091A4018F3F19F060E00E943D
:1004D000DE008091AE0184FD39C063E08FE991E0D8
:1004E0000E949101CBE4D6E4CE010197F1F763E0DD
:1004F0008FE991E00E9491012197F1F763E08FE984
:1005000091E00E94910183E592E00197F1F762E0AA
:100510008FE991E00E9491018091AE0180620E947A
:10052000110284E08093AF018CE00E94110281E00F
:100530000E9411028BE39FE10197F1F782E0809323
:10054000B00186E0DF91CF910C94110280620E948D
:1005500011028BE496E40197F1F78091AE0180627D
:100560000E94110283E592E00197F1F78091AE01BC
:1005700080620E941102D0CFE1E09091B20191110E
:10058000E0E0E195F0E0E156FE4F9489890F806844
:100590000C94110241E00E94BE0181E090E00895B8
:1005A00041E06BED8FE991E00E94BE0181E090E0B7
:1005B00008951F920F920FB60F9211242F933F931D
:1005C0008F939F93AF93BF9380919B0190919C01D8
:1005D000A0919D01B0919E0130919A0123E0230FDB
:1005E0002D3758F50196A11DB11D20939A018093D6
:1005F0009B0190939C01A0939D01B0939E018091DB
:10060000960190919701A0919801B091990101965E
:10061000A11DB11D8093960190939701A09398011D
:10062000B0939901BF91AF919F918F913F912F917D
:100630000F900FBE0F901F90189526E8230F02967B
:10064000A11DB11DD2CF789484B5826084BD84B5DC
:10065000816084BD85B5826085BD85B5816085BDBD
:1006600080916E00816080936E0010928100809175
:1006700081008260809381008091810081608093FD
:100680008100809180008160809380008091B10022
:1006900084608093B1008091B00081608093B0004D
:1006A00080917A00846080937A0080917A008260E1
:1006B00080937A0080917A00816080937A008091A3
:1006C0007A00806880937A001092C10064E084E12F
:1006D0000E9417028CE091E00E946E0160E08EE0C3
:1006E0000E940C0160E08FE00E940C0160E080E15C
:1006F0000E940C0160E081E10E940C0161E087E052
:100700000E940C0180E0C82E80E0D82E8EE00E946E
:10071000B5007C0190939501809394018FE00E9435
:10072000B5008C01909393018093920180E10E9427
:10073000B500EC01909391018093900181E10E94BA
:10074000B50021E0E216F10491F50130110509F040
:10075000BCC0219709F0B9C0019709F0B6C080E08C
:100760000E94BC020E94D0020E94D0020E94D002CD
:100770000E94D00286E391E00E946E0185E00E9413
:10078000BC028CE191E00E946E0180E00E94BC02FC
:1007900087E291E00E946E0160E087E00E94DE0047
:1007A000C114D10409F4B2CF0E940000AFCFEF28EA
:1007B00009F08BC001301105E9F4219709F085C0DB
:1007C000019709F082C080E00E94BC020E94D00222
:1007D0000E94D0020E94D00288E391E00E946E0144
:1007E00086E391E00E946E0185E00E94BC028AE3EC
:1007F00091E0C9CF012B09F068C0C130D10531F5B6
:10080000019709F062C080E00E94BC020E94D00201
:100810000E94D00288E391E00E946E0188E391E09B
:100820000E946E0186E391E00E946E0185E00E94C5
:10083000BC0285E491E00E946E0180E00E94BC024F
:1008400081E591E00E946E0161E0A7CFCD2BE9F533
:1008500081309105D9F480E00E94BC020E94D00250
:1008600088E391E00E946E0188E391E00E946E01AE
:1008700088E391E00E946E0186E391E00E946E01A0
:1008800085E00E94BC0281E691E0D5CF892BE9F496
:1008900080E00E94BC0288E391E00E946E0188E340
:1008A00091E00E946E0188E391E00E946E0188E36E
:1008B00091E00E946E0186E391E00E946E0185E066
:1008C0000E94BC028DE691E0B6CF60E087E00E9416
:1008D000DE0080E00E94BC028EE791E00E946E0183
:1008E0005FCFEFE9F1E01382128284E091E091831F
:1008F00080838DE084838CE085838BE086838AE02F
:10090000878389E0808788E0818787E082871386F4
:10091000148615861686178661E080E10C9417020E
:10092000EE0FFF1F0590F491E02D0994F894FFCF8E
:1009300000000000CA023D016B016A0154616E6B48
:10094000205374617475202E2E2E2E0046756C6C0B
:10095000202E2E2E2E2E004D6F746F722069732064
:100960004F464620202020005F0048414C46202E64
:100970002E2E2E2E005155415452202E2E2E2E2E2C
:10098000004D6F746F72206973204F4E202020201D
:1009900000454D505459202E2E2E2E2E00454D50E0
:1009A00054592031303025202E2E2E2E2E0020534B
:1009B000656E736F72204661696C212E2E2E0000C9
:00000001FF
