:100000000C945C000C9479000C9479000C947900A9
:100010000C9479000C9479000C9479000C9479007C
:100020000C9479000C9479000C9479000C9479006C
:100030000C9479000C9479000C9479000C9479005C
:100040000C9446010C9479000C9479000C9479007E
:100050000C9479000C9479000C9479000C9479003C
:100060000C9479000C947900000000002400270013
:100070002A0000000000250028002B0004040404CE
:100080000404040402020202020203030303030342
:10009000010204081020408001020408102001021F
:1000A00004081020000000080002010000030407FB
:1000B000000000000000000011241FBECFEFD8E0B8
:1000C000DEBFCDBF11E0A0E0B1E0EEEEF5E002C092
:1000D00005900D92A030B107D9F721E0A0E0B1E082
:1000E00001C01D92A731B207E1F70E9490010C9464
:1000F000F5020C94000090E0FC01EC55FF4F2491B8
:10010000FC01E057FF4F3491FC01E458FF4FE491AC
:10011000EE23C9F0222339F0233001F1A8F4213075
:1001200019F1223029F1F0E0EE0FFF1FEE58FF4FDA
:10013000A591B4918FB7F894EC91611126C03095D8
:100140003E233C938FBF08952730A9F02830C9F093
:10015000243049F7809180008F7D03C0809180001A
:100160008F7780938000DFCF84B58F7784BDDBCF1E
:1001700084B58F7DFBCF8091B0008F778093B000E6
:10018000D2CF8091B0008F7DF9CF3E2BDACF482FB0
:1001900050E0FA01E057FF4F9491FA01E458FF4F05
:1001A0002491222399F030E0220F331FF901E859FE
:1001B000FF4FA591B491F901EE58FF4F259134916D
:1001C0002FB7F894EC91E92BEC932FBF61157105D3
:1001D00019F460E00C947B006F3F710511F461E04D
:1001E000F9CFFA01EC55FF4FE491E33019F140F4F7
:1001F000E130B1F0E230C9F06038710584F7E9CF41
:10020000E73011F1E83041F1E430B1F7809180003E
:1002100080628093800070938B0060938A000895C1
:1002200084B5806884BD67BD089584B5806284BD4F
:1002300068BD0895809180008068809380007093ED
:1002400089006093880008958091B0008068809351
:10025000B0006093B30008958091B00080628093F5
:10026000B0006093B40008958E50806480937C0049
:1002700080917A00806480937A0080917A0086FD74
:10028000FCCF809178009091790008951F920F9291
:100290000FB60F9211242F933F938F939F93AF9399
:1002A000BF938091130190911401A0911501B09119
:1002B00016013091120123E0230F2D3758F50196D6
:1002C000A11DB11D2093120180931301909314017D
:1002D000A0931501B093160180910E0190910F012A
:1002E000A0911001B09111010196A11DB11D809343
:1002F0000E0190930F01A0931001B0931101BF91D3
:10030000AF919F918F913F912F910F900FBE0F90C2
:100310001F90189526E8230F0296A11DB11DD2CF7C
:10032000789484B5826084BD84B5816084BD85B5D0
:10033000826085BD85B5816085BD80916E008160DC
:1003400080936E0010928100809181008260809382
:100350008100809181008160809381008091800084
:100360008160809380008091B10084608093B100AF
:100370008091B00081608093B00080917A008460A9
:1003800080937A0080917A00826080937A008091D5
:100390007A00816080937A0080917A0080688093EF
:1003A0007A001092C1008EE00E9434019093050102
:1003B000809304018FE00E94340190930B0180939D
:1003C0000A0188248A9483E0982EA12CB12C00E0A5
:1003D00010E08EE00E943401EC0190930D018093B7
:1003E0000C018FE00E9434019C01C0900A01D09062
:1003F0000B01C6010A96281739070CF46BC00D2CA7
:10040000000CEE08FF08032E000C440B550B2C19B2
:100410003D094E095F09AFEFB0E00E94B902A501A6
:1004200094012C193D094E095F090E949A023093EC
:10043000070120930601C0900401D0900501C60178
:100440000A96C817D9070CF44AC0109203011092FB
:1004500002010D2C000CEE08FF089E01DD0F440B7D
:10046000550B2C193D094E095F09AFEFB0E00E9412
:10047000B902A50194012C193D094E095F090E949A
:100480009A02309301012093000110920901109209
:10049000080160910601709107018BE00E94C7007E
:1004A00060910201709103018AE00E94C70060918F
:1004B00000017091010186E00E94C70070E060E0D9
:1004C00089E00E94C7000115110509F482CF0E943E
:1004D00000007FCF1092070110920601ACCFC60139
:1004E0000A978C179D070CF11092010110920001E0
:1004F0000D2C000CEE08FF089E01DD0F440B550B80
:100500002C193D094E095F09AFEFB0E00E94B90216
:10051000A50194012C193D094E095F090E949A0218
:100520003093030120930201B0CF10920701109283
:100530000601ABCF052E97FB1EF400940E94B1027A
:1005400057FD07D00E94C40207FC03D04EF40C9460
:10055000B10250954095309521953F4F4F4F5F4FD9
:10056000089590958095709561957F4F8F4F9F4F1F
:1005700008950E94E602A59F900DB49F900DA49F40
:10058000800D911D11240895A1E21A2EAA1BBB1BF8
:10059000FD010DC0AA1FBB1FEE1FFF1FA217B3074F
:1005A000E407F50720F0A21BB30BE40BF50B661F65
:1005B000771F881F991F1A9469F760957095809529
:1005C00090959B01AC01BD01CF010895A29FB001A0
:1005D000B39FC001A39F700D811D1124911DB29F77
:0E05E000700D811D1124911D0895F894FFCF18
:00000001FF
