:020000040000FA
:100000000C945C000C9479000C9479000C947900A9
:100010000C9479000C9479000C9479000C9479007C
:100020000C9479000C9479000C9479000C9479006C
:100030000C9479000C9479000C9479000C9479005C
:100040000C94F8000C9479000C9479000C947900CD
:100050000C9479000C9479000C9479000C9479003C
:100060000C9479000C947900000000002400270013
:100070002A0000000000250028002B0004040404CE
:100080000404040402020202020203030303030342
:10009000010204081020408001020408102001021F
:1000A00004081020000000080002010000030407FB
:1000B000000000000000000011241FBECFEFD8E0B8
:1000C000DEBFCDBF11E0A0E0B1E0EEE2F5E002C09E
:1000D00005900D92A030B107D9F721E0A0E0B1E082
:1000E00001C01D92A930B207E1F70E9442010C94B1
:1000F00095020C94000090E0FC01EC55FF4F249118
:10010000FC01E057FF4F3491FC01E458FF4FE491AC
:10011000EE23C9F0222339F0233001F1A8F4213075
:1001200019F1223029F1F0E0EE0FFF1FEE58FF4FDA
:10013000A591B4918FB7F894EC91611126C03095D8
:100140003E233C938FBF08952730A9F02830C9F093
:10015000243049F7809180008F7D03C0809180001A
:100160008F7780938000DFCF84B58F7784BDDBCF1E
:1001700084B58F7DFBCF8091B0008F778093B000E6
:10018000D2CF8091B0008F7DF9CF3E2BDACFCF93C5
:10019000DF9390E0FC01E057FF4F249184589F4F7C
:1001A000FC0184918823D1F090E0880F991FFC0115
:1001B000E859FF4FA591B491FC01EE58FF4FC5914E
:1001C000D49161110EC09FB7F8948C91E22FE09505
:1001D0008E238C932881E223E8839FBFDF91CF9108
:1001E00008958FB7F894EC91E22BEC938FBFF6CF84
:1001F0001F920F920FB60F9211242F933F938F935C
:100200009F93AF93BF938091050190910601A091B8
:100210000701B09108013091040123E0230F2D372D
:1002200058F50196A11DB11D20930401809305018D
:1002300090930601A0930701B093080180910001FB
:1002400090910101A0910201B09103010196A11DBD
:10025000B11D8093000190930101A0930201B0931E
:100260000301BF91AF919F918F913F912F910F907B
:100270000FBE0F901F90189526E8230F0296A11D20
:10028000B11DD2CF789484B5826084BD84B581607D
:1002900084BD85B5826085BD85B5816085BD809151
:1002A0006E00816080936E001092810080918100C9
:1002B00082608093810080918100816080938100C1
:1002C000809180008160809380008091B100846083
:1002D0008093B1008091B00081608093B0008091E4
:1002E0007A00846080937A0080917A0082608093A3
:1002F0007A0080917A00816080937A0080917A0000
:10030000806880937A001092C10060E08EE00E94C5
:10031000C70061E082E00E94C70061E083E00E94C4
:10032000C70061E084E00E94C70061E086E00E94AF
:10033000C70061E087E00E94C70010E4CC24CA94A3
:1003400083E0D82EE12CF12CC0E0D0E010937C00AB
:1003500080917A00806480937A0080917A0086FD93
:10036000FCCFA0917800B091790024E630E00E94A3
:100370008E02A70196010E943E02C9012A3531056D
:10038000ECF061E082E00E947B0061E083E00E948B
:100390007B0061E084E00E947B0061E085E00E94D8
:1003A0007B0061E086E00E947B0061E087E00E94C4
:1003B0007B00209759F20E940000C8CFB901605518
:1003C00071096A307105B0F461E082E00E947B003F
:1003D00061E083E00E947B0061E084E00E947B009A
:1003E00061E085E00E947B0061E086E00E947B0086
:1003F00060E0DCCFB9016C5371096431710590F490
:1004000061E082E00E947B0061E083E00E947B006B
:1004100061E084E00E947B0061E085E00E947B0057
:1004200060E0E3CFB901685271096431710570F47D
:1004300061E082E00E947B0061E083E00E947B003B
:1004400061E084E00E947B0060E0E7CF2451310945
:100450002431310550F461E082E00E947B0061E0CC
:1004600083E00E947B0060E0ECCF61E044970CF0F9
:1004700060E082E00E947B0060E0F2CF052E97FBF7
:100480001EF400940E94550257FD07D00E945D02A1
:1004900007FC03D04EF40C945502509540953095CE
:1004A00021953F4F4F4F5F4F0895909580957095E0
:1004B00061957F4F8F4F9F4F0895A1E21A2EAA1B7F
:1004C000BB1BFD010DC0AA1FBB1FEE1FFF1FA21704
:1004D000B307E407F50720F0A21BB30BE40BF50B01
:1004E000661F771F881F991F1A9469F7609570958A
:1004F000809590959B01AC01BD01CF010895A29F0D
:10050000B001B39FC001A39F700D811D1124911DE7
:10051000B29F700D811D1124911D08950E947F02CC
:0E052000B7FF0895821B930B0895F894FFCF48
:107E0000112484B714BE81FFF0D085E080938100F7
:107E100082E08093C00088E18093C10086E0809377
:107E2000C20080E18093C4008EE0C9D0259A86E02C
:107E300020E33CEF91E0309385002093840096BBD3
:107E4000B09BFECF1D9AA8958150A9F7CC24DD24C4
:107E500088248394B5E0AB2EA1E19A2EF3E0BF2EE7
:107E6000A2D0813461F49FD0082FAFD0023811F036
:107E7000013811F484E001C083E08DD089C08234E0
:107E800011F484E103C0853419F485E0A6D080C0E4
:107E9000853579F488D0E82EFF2485D0082F10E0AE
:107EA000102F00270E291F29000F111F8ED06801E7
:107EB0006FC0863521F484E090D080E0DECF843638
:107EC00009F040C070D06FD0082F6DD080E0C81688
:107ED00080E7D80618F4F601B7BEE895C0E0D1E017
:107EE00062D089930C17E1F7F0E0CF16F0E7DF06D8
:107EF00018F0F601B7BEE89568D007B600FCFDCFD4
:107F0000A601A0E0B1E02C9130E011968C91119780
:107F100090E0982F8827822B932B1296FA010C0160
:107F200087BEE89511244E5F5F4FF1E0A038BF0790
:107F300051F7F601A7BEE89507B600FCFDCF97BE46
:107F4000E89526C08437B1F42ED02DD0F82E2BD052
:107F50003CD0F601EF2C8F010F5F1F4F84911BD097
:107F6000EA94F801C1F70894C11CD11CFA94CF0C13
:107F7000D11C0EC0853739F428D08EE10CD085E9AC
:107F80000AD08FE07ACF813511F488E018D01DD067
:107F900080E101D065CF982F8091C00085FFFCCF94
:107FA0009093C60008958091C00087FFFCCF809118
:107FB000C00084FD01C0A8958091C6000895E0E648
:107FC000F0E098E1908380830895EDDF803219F02E
:107FD00088E0F5DFFFCF84E1DECF1F93182FE3DFCA
:107FE0001150E9F7F2DF1F91089580E0E8DFEE27F6
:047FF000FF270994CA
:027FFE00040479
:00000001FF
